{
  "contractName": "EtherTransfer",
  "abi": [
    {
      "inputs": [
        {
          "internalType": "address payable",
          "name": "_to",
          "type": "address"
        }
      ],
      "name": "transferEther",
      "outputs": [],
      "stateMutability": "payable",
      "type": "function",
      "payable": true
    }
  ],
  "bytecode": "0x608060405234801561001057600080fd5b50610235806100206000396000f3fe60806040526004361061001e5760003560e01c80636b55e99114610023575b600080fd5b61003d6004803603810190610038919061012f565b61003f565b005b60003411610082576040517f08c379a0000000000000000000000000000000000000000000000000000000008152600401610079906101df565b60405180910390fd5b8073ffffffffffffffffffffffffffffffffffffffff166108fc349081150290604051600060405180830381858888f193505050501580156100c8573d6000803e3d6000fd5b5050565b600080fd5b600073ffffffffffffffffffffffffffffffffffffffff82169050919050565b60006100fc826100d1565b9050919050565b61010c816100f1565b811461011757600080fd5b50565b60008135905061012981610103565b92915050565b600060208284031215610145576101446100cc565b5b60006101538482850161011a565b91505092915050565b600082825260208201905092915050565b7f76616c6f72206465207472616e73666572656e6369612070726563697361207360008201527f656e206d61696f6e20717565206f000000000000000000000000000000000000602082015250565b60006101c9602e8361015c565b91506101d48261016d565b604082019050919050565b600060208201905081810360008301526101f8816101bc565b905091905056fea264697066735822122052cea9a6371b8a9e0070fed567faf3c5b034bbf26a489b1858f13dd443eac14764736f6c63430008130033",
  "immutableReferences": {},
  "source": "// SPDX-License-Identifier: MIT \r\npragma solidity ^0.8.0;\r\n\r\ncontract EtherTransfer{\r\n    function transferEther(address payable _to) external payable{\r\n        require(msg.value > 0, \"valor de transferencia precisa sen maion que o\");\r\n        _to.transfer(msg.value);\r\n    \r\n\r\n    }\r\n\r\n}\r\n",
  "sourcePath": "C:\\Users\\55839\\ProjetoSD\\contracts\\EtherTransfer.sol",
  "compiler": {
    "name": "solc",
    "version": "0.8.19+commit.7dd6d404.Emscripten.clang"
  },
  "schemaVersion": "3.4.16",
  "updatedAt": "2024-06-09T12:32:37.165Z",
  "networkType": "ethereum",
  "devdoc": {
    "kind": "dev",
    "methods": {},
    "version": 1
  },
  "userdoc": {
    "kind": "user",
    "methods": {},
    "version": 1
  }
}